{
  "contractName": "Adoption",
  "abi": [
    {
      "constant": true,
      "inputs": [
        {
          "name": "",
          "type": "uint256"
        }
      ],
      "name": "adopters",
      "outputs": [
        {
          "name": "",
          "type": "address"
        }
      ],
      "payable": false,
      "stateMutability": "view",
      "type": "function"
    },
    {
      "constant": true,
      "inputs": [
        {
          "name": "",
          "type": "uint256"
        }
      ],
      "name": "adop0",
      "outputs": [
        {
          "name": "",
          "type": "address"
        }
      ],
      "payable": false,
      "stateMutability": "view",
      "type": "function"
    },
    {
      "constant": false,
      "inputs": [
        {
          "name": "petId",
          "type": "uint256"
        }
      ],
      "name": "adopt",
      "outputs": [
        {
          "name": "",
          "type": "uint256"
        }
      ],
      "payable": false,
      "stateMutability": "nonpayable",
      "type": "function"
    },
    {
      "constant": true,
      "inputs": [],
      "name": "getAdopters",
      "outputs": [
        {
          "name": "",
          "type": "address[16]"
        }
      ],
      "payable": false,
      "stateMutability": "view",
      "type": "function"
    },
    {
      "constant": true,
      "inputs": [],
      "name": "getChar0",
      "outputs": [
        {
          "name": "",
          "type": "address[10]"
        }
      ],
      "payable": false,
      "stateMutability": "view",
      "type": "function"
    }
  ],
  "bytecode": "0x60806040526000601a5534801561001557600080fd5b506104e2806100256000396000f3fe608060405234801561001057600080fd5b50600436106100575760003560e01c80633de4eb171461005c57806343ae80d3146100a25780634cffcad9146101105780635c1566be1461017e5780638588b2c5146101c4575b600080fd5b610064610206565b6040518082601060200280838360005b8381101561008f578082015181840152602081019050610074565b5050505090500191505060405180910390f35b6100ce600480360360208110156100b857600080fd5b8101908080359060200190929190505050610287565b604051808273ffffffffffffffffffffffffffffffffffffffff1673ffffffffffffffffffffffffffffffffffffffff16815260200191505060405180910390f35b61013c6004803603602081101561012657600080fd5b81019080803590602001909291905050506102ba565b604051808273ffffffffffffffffffffffffffffffffffffffff1673ffffffffffffffffffffffffffffffffffffffff16815260200191505060405180910390f35b6101866102ed565b6040518082600a60200280838360005b838110156101b1578082015181840152602081019050610196565b5050505090500191505060405180910390f35b6101f0600480360360208110156101da57600080fd5b810190808035906020019092919050505061036e565b6040518082815260200191505060405180910390f35b61020e610470565b600060108060200260405190810160405280929190826010801561027d576020028201915b8160009054906101000a900473ffffffffffffffffffffffffffffffffffffffff1673ffffffffffffffffffffffffffffffffffffffff1681526020019060010190808311610233575b5050505050905090565b6000816010811061029457fe5b016000915054906101000a900473ffffffffffffffffffffffffffffffffffffffff1681565b601081600a81106102c757fe5b016000915054906101000a900473ffffffffffffffffffffffffffffffffffffffff1681565b6102f5610493565b6010600a806020026040519081016040528092919082600a8015610364576020028201915b8160009054906101000a900473ffffffffffffffffffffffffffffffffffffffff1673ffffffffffffffffffffffffffffffffffffffff168152602001906001019080831161031a575b5050505050905090565b60008082101580156103815750600f8211155b61038a57600080fd5b336000836010811061039857fe5b0160006101000a81548173ffffffffffffffffffffffffffffffffffffffff021916908373ffffffffffffffffffffffffffffffffffffffff160217905550600082141561046857600082601081106103ed57fe5b0160009054906101000a900473ffffffffffffffffffffffffffffffffffffffff166010600a601a548161041d57fe5b06600a811061042857fe5b0160006101000a81548173ffffffffffffffffffffffffffffffffffffffff021916908373ffffffffffffffffffffffffffffffffffffffff1602179055505b819050919050565b604051806102000160405280601090602082028038833980820191505090505090565b604051806101400160405280600a9060208202803883398082019150509050509056fea165627a7a72305820297fe29f3462c825ec0eba9cc6fff3e1416d7c91184905f53b24924e791e71ac0029",
  "source": "pragma solidity ^0.5.0;\r\n\r\ncontract Adoption {\r\n  address[16] public adopters;\r\n  address[10] public adop0;\r\n  uint dop0 = 0;\r\n\r\n  // Adopting a pet\r\nfunction adopt(uint petId) public returns (uint) {\r\n  require(petId >= 0 && petId <= 15);\r\n\r\n  adopters[petId] = msg.sender;\r\n  if(petId == 0){\r\n    adop0[dop0%10] = adopters[petId];\r\n  }\r\n\r\n  return petId;\r\n}\r\n// Retrieving the adopters\r\nfunction getAdopters() public view returns (address[16] memory) {\r\n  return adopters;\r\n}\r\n\r\nfunction getChar0() public view returns (address[10] memory) {\r\n  return adop0;\r\n}\r\n\r\n}\r\n",
  "sourcePath": "C:/Users/Srujan Deshpande/Desktop/Projects/coconut-brigade/contracts/Adoption.sol",
  "compiler": {
    "name": "solc",
    "version": "0.5.8+commit.23d335f2.Emscripten.clang"
  },
  "schemaVersion": "3.0.13",
  "updatedAt": "2019-10-26T20:50:33.697Z",
  "devdoc": {
    "methods": {}
  },
  "userdoc": {
    "methods": {}
  }
}