{
  "contractName": "CommunityChest",
  "abi": [
    {
      "constant": false,
      "inputs": [],
      "name": "withdraw",
      "outputs": [],
      "payable": false,
      "stateMutability": "nonpayable",
      "type": "function"
    },
    {
      "constant": false,
      "inputs": [
        {
          "name": "amount",
          "type": "uint256"
        }
      ],
      "name": "deposit",
      "outputs": [],
      "payable": true,
      "stateMutability": "payable",
      "type": "function"
    },
    {
      "constant": true,
      "inputs": [],
      "name": "getBalance",
      "outputs": [
        {
          "name": "",
          "type": "uint256"
        }
      ],
      "payable": false,
      "stateMutability": "view",
      "type": "function"
    }
  ],
  "bytecode": "0x608060405234801561001057600080fd5b50610163806100206000396000f3fe6080604052600436106100345760003560e01c806312065fe0146100395780633ccfd60b14610064578063b6b55f251461007b575b600080fd5b34801561004557600080fd5b5061004e6100a9565b6040518082815260200191505060405180910390f35b34801561007057600080fd5b506100796100c8565b005b6100a76004803603602081101561009157600080fd5b8101908080359060200190929190505050610128565b005b60003073ffffffffffffffffffffffffffffffffffffffff1631905090565b3373ffffffffffffffffffffffffffffffffffffffff166108fc3073ffffffffffffffffffffffffffffffffffffffff16319081150290604051600060405180830381858888f19350505050158015610125573d6000803e3d6000fd5b50565b80341461013457600080fd5b5056fea165627a7a72305820020a8c642292c18c362eac776ce88654d115befd0825c01c8d5a0182217a9ec60029",
  "source": "pragma solidity ^0.5.0;\r\n\r\ncontract CommunityChest {\r\n    function withdraw() public {\r\n        msg.sender.transfer(address(this).balance);\r\n    }\r\n\r\n    function deposit(uint256 amount) payable public {\r\n        require(msg.value == amount);\r\n        // nothing else to do!\r\n    }\r\n\r\n    function getBalance() public view returns (uint256) {\r\n        return address(this).balance;\r\n    }\r\n}\r\n\r\n\r\ncontract Adoption {\r\n  address[16] public adopters;\r\n  // Adopting a pet\r\nfunction adopt(uint petId) public returns (uint) {\r\n  require(petId >= 0 && petId <= 15);\r\n\r\n  adopters[petId] = msg.sender;\r\n\r\n  return petId;\r\n}\r\n// Retrieving the adopters\r\nfunction getAdopters() public view returns (address[16] memory) {\r\n  return adopters;\r\n}\r\n\r\n}\r\n",
  "sourcePath": "C:/Users/Srujan Deshpande/Desktop/Projects/coconut-brigade/contracts/Adoption.sol",
  "compiler": {
    "name": "solc",
    "version": "0.5.8+commit.23d335f2.Emscripten.clang"
  },
  "schemaVersion": "3.0.13",
  "updatedAt": "2019-10-26T22:48:09.660Z",
  "devdoc": {
    "methods": {}
  },
  "userdoc": {
    "methods": {}
  }
}